:020000040800F2
:10000000C06C002045010008D10C0008830C0008DA
:10001000CD0C000879070008A31C000800000000B0
:10002000000000000000000000000000991000081F
:100030007908000800000000D10E0008E51800084B
:100040005F0100085F0100085F0100085F01000810
:100050005F0100085F0100085F0100085F01000800
:100060005F0100085F0100085F0100085F010008F0
:100070005F0100085F0100085F0100085F010008E0
:100080005F0100085F0100085F0100085F010008D0
:100090005F0100085F0100085F0100085F010008C0
:1000A0005F0100085F0100085F0100085F010008B0
:1000B0005F0100085F0100085F0100085F010008A0
:1000C0005F0100085F0100085F0100085F01000890
:1000D0005F010008851900085F0100085F01000842
:1000E0005F0100085F0100085F0100085F01000870
:1000F0005F0100085F0100085F0100085F01000860
:100100005F0100085F0100085F0100085F0100084F
:100110005F0100085F0100085F0100085F0100083F
:100120005F0100085F0100085F0100085F0100082F
:10013000DFF80CD000F088FA004800479921000849
:10014000C06C00200648804706480047FEE7FEE7EF
:10015000FEE7FEE7FEE7FEE7FEE7FEE7FEE7FEE777
:10016000251900083101000840EA01039B0703D06C
:1001700009E008C9121F08C0042AFAD203E011F8E6
:10018000013B00F8013B521EF9D270472DE9FE4FAA
:10019000804681EA0300C00F0C46009021F0004128
:1001A00023F00045B8EB0200A94105D240462146A4
:1001B00090461C460B46024623F00040104347D0B1
:1001C000270DC7F30A00C3F30A510290401A0190A9
:1001D00040286BDAC3F3130040F4801B009892466A
:1001E00020B10023D2EB030A63EB0B0B01985946B5
:1001F000C0F14002504600F099F906460D465046BF
:100200005946019A00F0B1F910EB08006141002451
:1002100087EA115284EAE7731A4340D0009A62B326
:10022000019A012A4FEA075215DC001B61EB02011B
:100230004FF0004202EA0752CDE90042001C41F5AE
:10024000801132462B4600F0B1F903B0BDE8F08FC3
:1002500040462146F9E7001B61EB0201001C41F515
:10026000801300185B412018A2F5001747EB03012B
:1002700040EAD570B6196D4111E06D084FEA3606B7
:1002800045EAC0754FEA0752001B61EB0201001CF2
:1002900041F5801149084FEA3000001951413246BA
:1002A0002B4603B0BDE8F04F00F071B90098012271
:1002B00040000023D0EB020263EBE073009821467C
:1002C0004FEAE074B8EB000061EB0401E9E783F06A
:1002D00000435BE781F0004158E72DE9FE4F81EADA
:1002E000030404F0004421F0004100944FF0000B9F
:1002F00023F0004350EA01045ED052EA03045BD0CD
:10030000C3F30A54C1F30A552C44A4F2F334019404
:10031000A0FB0254C1F3130141F48011C3F3130392
:1003200043F4801301FB024400FB034E840A970A46
:1003300044EA815447EA8357A4FB076802958D0A73
:1003400005FB07854FEA932C04FB0C542705029DFF
:100350004FEA065847EA1637B5EB08056EEB070C6F
:10036000870E920E47EA811742EA8312A7FB020129
:10037000B6EB0B0164EB00042B0D43EA0C335E1863
:1003800044EB1C50DA465146E7FB0201C5F3130467
:100390004FEA0B3343EA14534FEA0432019C43EA19
:1003A0000603A4F10C040294009CCDE900B400F013
:1003B000FDF803B0BDE8F08F00200146F9E72DE914
:1003C000F04D81EA030404F0004B21F0004514468F
:1003D0004FF0000A23F0004150EA050220D054EA11
:1003E00001021DD0C5F30A570246C5F31303C1F33A
:1003F0001300C1F30A5640F4801543F48013A7EBB1
:100400000608101BD64608F2FD3873EB050002D330
:1004100008F1010801E092185B41B8F1000F03DA1E
:1004200000200146BDE8F08D00204FF48011064603
:1004300084460EE0171B73EB050705D3121B63EB15
:10044000050306434CEA010C49084FEA30009218B4
:100450005B4150EA0107EDD152EA030012D082EA73
:10046000040083EA0501084305D0101BAB4106D206
:100470000122002306E000224FF0004302E06FF06B
:10048000010253101AEB06004CEB085110EB0A0066
:1004900041EB0B01BDE8F04D00F079B80EB5C10F8E
:1004A00080EAE0700844CA07002140F233438DE837
:1004B0000E000A460B4600F079F803B000BD70B597
:1004C000C1F30A5201F000450024C1F3130140F2C8
:1004D000FF3341F480119A4201DA002070BD40F2EE
:1004E00033439A42A2F2334203DC524200F02DF829
:1004F00000E090402C43F1D0404270BD30B5041E66
:1005000071F1000404DB4FF00044404264EB010150
:10051000141E73F1000405DB1C464FF000435242E9
:1005200063EB0403994208BF904230BD202A04DBEC
:10053000203A00FA02F1002070479140C2F12003F6
:1005400020FA03F3194390407047202A04DB203A35
:1005500021FA02F00021704721FA02F3D040C2F1E3
:1005600020029140084319467047202A06DBCB172A
:10057000203A41FA02F043EAE07306E041FA02F35E
:10058000D040C2F12002914008431946704710B58F
:10059000141E73F1000408DA401C41F100019218A6
:1005A0005B411A4301D120F0010010BD2DE9F04D4F
:1005B00092469B4611B1B1FA81F202E0B0FA80F2A4
:1005C00020329046FFF7B2FF04460F4640EA0A0089
:1005D00041EA0B0153465A46084313D0114653EAE9
:1005E000010019D0C8F140025046FFF7AEFF0546A2
:1005F0000E46504659464246FFF798FF084305D03D
:10060000012004E020463946BDE8F08D0020054376
:1006100046EAE0762C4337430A986305E40AA0EBE8
:1006200008000022FD0A44EA47540A3002D500209F
:100630000146E9E7010510196941DDE9084500199E
:100640006941BDE8F04DA2E7064C074D06E0E068C1
:1006500040F0010394E8070098471034AC42F6D309
:10066000FFF76AFD9C330008BC33000870B58D1895
:1006700010F8014B14F0030201D110F8012B2311E3
:1006800006D110F8013B03E010F8016B01F8016B93
:10069000521EF9D1ABB110F8012B04F00C048A1AE8
:1006A0000C2C03D0A2EB84129B1C08E010F8014B29
:1006B000A2EB0422F8E712F8014B01F8014B5B1E94
:1006C000F9D5A942D4D3002070BD000010B5AA20EE
:1006D00025490870BB204870062088700020C8702B
:1006E0000871487102208871C87104200872084698
:1006F000C078097948401C49497948401A498979A4
:1007000048401949C97948401749097A484016496B
:1007100048720A21144800F0C1FC4FF4FA641CE04E
:1007200012480078012813D11148807980B9104807
:10073000C079104908700E48007A48700C48407A19
:1007400088700B48807AC87000200849087010BD76
:10075000611E0C46084601F0D5FB002CE0D10020BC
:10076000024908700120F2E7486800204400002098
:100770007A6800203000002000BFFEE770B5002539
:10078000012414E00C48006800F4005000B1254337
:100790004FF48050084908310860322000F085F895
:1007A0004FF4805004490C3108606006040E002CA0
:1007B000E8D1284670BD0000080C014070B5054620
:1007C00001241AE005EA040020B14FF400500C495E
:1007D000086004E04FF400500949091D08604FF417
:1007E000805007490860322000F05FF84FF48050D5
:1007F0000349091D08606006040E002CE2D170BD9B
:10080000100C014010B50121082000F063FB4FF4EB
:10081000E041074800F031FA4FF4E0400549088014
:100820001020C87003208870014800F09BF910BDAB
:10083000000C01402A00002010B54FF4005004497C
:1008400008804820C870034800F08CF910BD0000F3
:100850002A000020000C014010B54FF4005004495C
:1008600008801020C870034800F07CF910BD00001B
:100870002A000020000C0140704770B50346002597
:1008800010E000240AE0002604E0CB2002F06CFD1A
:10089000701CC6B20F2EF8DB601CC4B2832CF2DBD6
:1008A000681CC5B29D42ECDB70BD00BF011EA0F10B
:1008B0000100FBD170472DE9F05F81468A4617465B
:1008C0009846DDE90A4B5146484600F073FC38195A
:1008D000401EC1B2384600F0CDFD00F0FAFD002503
:1008E0000DE0002607E0584601F088FA0C9801F068
:1008F00085FA701CC6B2A642F5DB681CC5B2AAEB2D
:100900000900401CA842ECDCAAEB0401491CC8B257
:10091000514600F04FFC4146384600F0ABFD00F078
:10092000D8FD00250DE0002607E0584601F066FAE4
:100930000C9801F063FA701CC6B2A642F5DB681C85
:10094000C5B2A8EB0700401CA842ECDC5146484663
:1009500000F030FCA8EB0401491CC8B2414600F08D
:1009600089FD00F0B6FD00250DE0002607E05846A1
:1009700001F044FA0C9801F041FA701CC6B2A6428C
:10098000F5DB681CC5B2AAEB0900401CA842ECDCF0
:1009900009EB0400401EC1B2484600F00BFC414682
:1009A000384600F067FD00F094FD00250DE00026BC
:1009B00007E0584601F022FA0C9801F01FFA701C6B
:1009C000C6B2A642F5DB681CC5B2A8EB0700401C06
:1009D000A842ECDCBDE8F09F2DE9F05F06460F462B
:1009E00014461D46DDE90AAB3946304600F0E2FB0D
:1009F0002946204600F03EFD00F06BFD4FF0000858
:100A000014E04FF0000909E0504601F0F7F95846AC
:100A100001F0F4F909F1010000F0FF09B81B401CD6
:100A20004845F1DC08F1010000F0FF08281B401CDC
:100A30004045E6DCBDE8F09F2DE9F04107460C4655
:100A40007F21002000F0B6FB7F21002000F012FD86
:100A500000F03FFD00250DE0002607E0384601F0DC
:100A6000CDF9204601F0CAF9701CC6B2802EF5DB24
:100A7000681CC5B2802DEFDBBDE8F08170B504467F
:100A8000AA201F490870BB204870062088700020EB
:100A9000C87008714871012088710220C871084629
:100AA0000472C07809794840154949794840144989
:100AB000897948401249C97948401149097A484022
:100AC0000F4948720A210E4800F0E8FA4FF4FA651F
:100AD0000FE00C480078012806D10B48807918B93E
:100AE00000200849087070BD691E0D46084601F0D7
:100AF00009FA002DEDD10020024908700120F2E72B
:100B000048680020440000207A68002008B50121D0
:100B1000402000F0DFF90420ADF8000048208DF8F7
:100B2000030003208DF802006946024800F01AF81D
:100B300008BD00000018014008B50121802000F028
:100B4000C9F90120ADF8000048208DF8030003200A
:100B50008DF802006946024800F004F808BD000064
:100B6000001C01402DE9F04102460025002600202E
:100B700000230024002791F803C00CF00F0591F822
:100B800003C00CF0100CBCF1000F03D091F802C0B0
:100B90004CEA050591F800C0BCF1000F31D0146893
:100BA00000202BE04FF0010C0CFA00F3B1F800C06C
:100BB0000CEA03069E4220D183004FF00F0C0CFA82
:100BC00003F7BC4305FA03FC4CEA040491F803C0A4
:100BD000BCF1280F06D14FF0010C0CFA00FCC2F852
:100BE00014C00AE091F803C0BCF1480F05D14FF0E2
:100BF000010C0CFA00FCC2F810C0401C0828D1D32C
:100C00001460B1F800C0BCF1FF0F34DD546800205F
:100C10002EE000F1080C4FF0010808FA0CF3B1F8CF
:100C200000C00CEA03069E4221D183004FF00F0C56
:100C30000CFA03F7BC4305FA03FC4CEA040491F8F0
:100C400003C0BCF1280F05D100F1080C08FA0CF81C
:100C5000C2F8148091F803C0BCF1480F07D100F12D
:100C6000080C4FF0010808FA0CF8C2F81080401C7C
:100C70000828CED35460BDE8F0814161704701611E
:100C8000704700BFFEE710B5FFF7BCFD002000F085
:100C9000F7F9044684F0A500B8B1A521002001F0C1
:100CA0005FF800218E2000F0FFFF0321902000F06C
:100CB000FBFF0021842000F0F7FF0021802000F0DE
:100CC000F3FF80218E2000F0EFFF10BD00BFFEE794
:100CD0007047000070B5002100230F22C47804B3D0
:100CE000154C246804F4E064C4F5E064210AC1F101
:100CF0000403CA40447804FA03F184781440214381
:100D000009010E4C0678A155047804F01F05012452
:100D1000AC4005786D11AD0005F1E025C5F8004146
:100D200009E0047804F01F050124AC40044D067866
:100D3000761145F8264070BD0CED00E000E400E0BF
:100D400080E100E002490143024A1160704700005F
:100D50000000FA050CED00E008B501214FF4947095
:100D600000F0B8F84FF47C50ADF8000010208DF87A
:100D7000030003208DF8020069462F48FFF7F2FEBA
:100D80004FF47C512C48FFF77AFF4FF480612A48DA
:100D9000FFF773FF0120FFF770FD4FF480612648D5
:100DA000FFF76DFF4FF480612348FFF768FF1220C3
:100DB00000F00DFAB12000F00AFA002000F049FA24
:100DC000F12000F01EFA7F2000F027FB002000F049
:100DD00037FA002000F05BFB742000F042FB00209B
:100DE00000F047FA012000F03BFAA02000F061FB80
:100DF000C8228021104600F0F3F90F2000F004FB18
:100E000000F040FA322000F011FB172000F020FB28
:100E1000A42000F0FFF9012000F011FB052000F0F4
:100E20003FFB022000F005FA00210846FFF704FE10
:100E3000012000F00EFA08BD001401402DE9FF4F1B
:100E400083B0074691461E46DDE9105A0020029005
:100E5000002438E0301B401EC1B20A2002F00EFA16
:100E6000B9FBF0F00A21B0FBF1F201FB1208029885
:100E7000B0B9701EA04213DDB8F1000F0ED1AB4621
:100E800005EBDB71491001FB0471C8B22B4620222F
:100E9000CDF800A0049901F073F812E0012002904F
:100EA000AB4605EBDB71491001FB0471C8B208F1D8
:100EB0003001CAB22B46CDF800A0049901F060F8C9
:100EC00000BF601CC4B2B442C4DB07B0BDE8F08F01
:100ED0007047000029B1064A92690243044B9A61A7
:100EE00004E0034A92698243014B9A617047000013
:100EF0000010024030B500210022002400232D4DB7
:100F00006D6805F00C0121B1042905D0082923D111
:100F100005E0294D056022E0274D05601FE0254DC5
:100F20006D6805F47012234D6D6805F48034022558
:100F300005EB92421CB9214D554305600BE01D4D58
:100F40006D6805F400351DB11C4D5543056002E088
:100F5000194D5543056002E0174D056000BF00BF05
:100F6000144D6D6805F0F0010909154D6B5C0568BD
:100F7000DD4045600F4D6D6805F4E061090A104DD4
:100F80006B5C4568DD4085600A4D6D6805F4605115
:100F9000C90A0B4D6B5C4568DD40C560054D6D6849
:100FA00005F44041890B074D6B5CC568B5FBF3F553
:100FB000056130BD0010024000127A0000093D00BA
:100FC000040000201400002070B504460025FFF73F
:100FD00043FC4FF480400E49086080100860800098
:100FE000091F08606420FFF760FC44F00100FFF770
:100FF000E5FBFFF721FCFFF7C1FB05466420FFF787
:1010000054FC4FF4804002490860284670BD00003F
:10101000140C014010B50446FFF71EFC4FF480404D
:1010200016490860801008608000091F086064206D
:10103000FFF73BFCBF20FFF7C1FBFFF7FDFBFFF70E
:101040009DFBA071FFF79AFB6071FFF797FB207182
:10105000FFF794FBE070FFF791FBA070FFF78EFBAA
:101060006070FFF78BFB2070FFF788FB6420FFF7B1
:101070001CFC4FF480400149086010BD140C014075
:1010800070B50446C02040EA4400C5B22846FFF7C8
:101090009BFF0646304670BD7047000070B50446A1
:1010A0000D4600260DE02178074800F0F6FD00BF50
:1010B0004021054800F024FD0028F9D0641C701C74
:1010C000C6B2AE42EFDB70BD0038014010B500F093
:1010D00001F810BD0CB50020019000903348006865
:1010E00040F480303149086000BF3048006800F4A7
:1010F000003000900198401C0190009818B90198A8
:10110000B0F5A06FF1D12948006800F4003010B1AB
:101110000120009001E0002000900098012843D1B8
:101120002348006840F01000214908600846006824
:1011300020F0030008600846006840F002000860E4
:101140001A4840681949486008464068486008469F
:10115000406840F4806048600846406820F47C1095
:1011600048600846406840F4E81048600846006857
:1011700040F08070086000BF0C48006800F000700C
:101180000028F9D00948406820F00300074948606A
:101190000846406840F00200486000BF03484068CD
:1011A00000F00C000828F9D10CBD0000001002402E
:1011B0000020024070B505460C46152000F0E4FD05
:1011C000284600F01BFE204600F018FE70BD10B54A
:1011D0000446FD2000F0D8FD204600F00FFE10BDB3
:1011E00070B506460C461546C12000F0CDFD3046D0
:1011F00000F004FE204600F001FE284600F0FEFD4F
:1012000070BD10B50446B32000F0BEFD204600F0CE
:10121000F5FD10BD10B50446B22000F0B5FD204626
:1012200000F0ECFD002000F0E9FD002000F0E6FDFC
:1012300010BD10B5044644F0A40000F0A5FD10BD9B
:1012400010B50446A22000F09FFD204600F0D6FD18
:1012500010BD10B5044644F0AE0000F095FD10BD81
:1012600010B50446AB2000F08FFD204600F0C6FD0F
:1012700010BD10B50446B52000F086FD204600F0F4
:10128000BDFD10BD10B5B82000F07EFD022000F0BD
:10129000B5FD032000F0B2FD042000F0AFFD0520F5
:1012A00000F0ACFD062000F0A9FD072000F0A6FD2F
:1012B000082000F0A3FD092000F0A0FD0A2000F0A6
:1012C0009DFD0B2000F09AFD0C2000F097FD0D20F5
:1012D00000F094FD0E2000F091FD0F2000F08EFD37
:1012E000102000F08BFD112000F088FD122000F08E
:1012F00085FD132000F082FD152000F07FFD1720F2
:1013000000F07CFD192000F079FD1B2000F076FD37
:101310001D2000F073FD1F2000F070FD212000F063
:101320006DFD232000F06AFD252000F067FD2720D9
:1013300000F064FD2A2000F061FD2D2000F05EFD2C
:10134000302000F05BFD332000F058FD362000F027
:1013500055FD392000F052FD3C2000F04FFD3F20AC
:1013600000F04CFD422000F049FD452000F046FD14
:10137000482000F043FD4C2000F040FD502000F0DC
:101380003DFD542000F03AFD582000F037FD5C2070
:1013900000F034FD602000F031FD642000F02EFDEF
:1013A000682000F02BFD6C2000F028FD702000F07C
:1013B00025FD742000F022FD782000F01FFD7D2027
:1013C00000F01CFD822000F019FD872000F016FDC2
:1013D0008C2000F013FD912000F010FD962000F00D
:1013E0000DFD9B2000F00AFDA02000F007FDA520C8
:1013F00000F004FDAA2000F001FDAF2000F0FEFC8B
:10140000B42000F0FBFC10BD10B50446C72000F06E
:10141000BBFC204600F0F2FC10BD10B50446CA200B
:1014200000F0B2FC204600F0E9FC10BD10B5044607
:10143000B12000F0A9FC204600F0E0FC10BD10B582
:101440000446B62000F0A0FC204600F0D7FC10BDFA
:1014500010B50446BB2000F097FC204600F0CEFCFF
:1014600010BD10B50446A02000F08EFC204600F010
:10147000C5FC10BD70B505460C46752000F084FC17
:10148000284600F0BBFC204600F0B8FC70BD10B54B
:101490000446A12000F078FC204600F0AFFC10BD0F
:1014A00010B50446BE2000F06FFC204600F0A6FCFC
:1014B00010BD10B50446B42000F066FC44F0A00056
:1014C00000F09CFCB52000F099FC552000F096FC43
:1014D00010BD10B55C2000F057FC10BD2DE9F05F89
:1014E00080460D4616461F46DDF828904446314694
:1014F0002846FFF75FFE49463846FFF7BBFFFFF778
:10150000E8FF4FF0000A16E04FF0000B0BE02078E8
:1015100000F074FC641C207800F070FC641C0BF17B
:10152000010000F0FF0B701B401C5845EFDC0AF176
:10153000010000F0FF0AA9EB0700401C5045E3DC66
:10154000BDE8F09F0EB5FF200122CDE90020642305
:1015500014227F2102900F20FFF7ADF9FF20012216
:10156000CDE90020642314221F2102900846FFF7D2
:10157000A2F9FF200122CDE90020642314222F21AB
:1015800002900846FFF797F9FF200122CDE90020DD
:10159000642314223F2102900846FFF78CF9FF20B4
:1015A0000122CDE90020642314224F210290084635
:1015B000FFF781F9FF200122CDE9002064231422E6
:1015C0005F2102900846FFF776F9FF200122CDE95E
:1015D0000020642314226F2102900846FFF76BF964
:1015E000FF200122CDE900201E231A467F21029010
:1015F0000F20FFF760F9FF200122CDE9002028230A
:101600001A467F2102900F20FFF755F9FF20012293
:10161000CDE9002032231A467F2102900F20FFF7E8
:101620004AF9FF200122CDE900203C231A467F2100
:1016300002900F20FFF73FF9FF200122CDE90020A3
:1016400046231A467F2102900F20FFF734F9FF202E
:101650000122CDE9002050231A467F2102900F205D
:10166000FFF729F9FF200122CDE900205A231A466D
:101670007F2102900F20FFF71EF94FF6FF7008211F
:1016800001230A46CDE9001011210520FFF7D6FB02
:101690004FF6FF70082102230A22CDE900101B211A
:1016A0000020FFF7CBFB4FF6FF70082102230C222E
:1016B000CDE9001025210020FFF7C0FB4FF6FF7099
:1016C000082102230E22CDE900102F210020FFF770
:1016D000B5FB4FF6FF70082102231022CDE9001060
:1016E00039210020FFF7AAFB4FF6FF7008210223E3
:1016F0001222CDE9001043210020FFF79FFB4FF697
:10170000FF70082102231422CDE900104D21002092
:10171000FFF794FB4FF6FF70082102231622CDE954
:10172000001057210020FFF789FB4FF6FF700821BA
:1017300002231822CDE9001061210020FFF77EFB73
:101740004FF6FF700A234D22194600900F2000F03B
:1017500017FC4FF6FF700A236F22194600901420E1
:1017600000F00EFC4FF6FF700A236E22194600901F
:10177000192000F005FC4FF6FF700A235422194689
:1017800000901F2000F0FCFB4FF6FF700A2375222B
:1017900019460090242000F0F3FB4FF6FF700A2357
:1017A000652219460090292000F0EAFB4FF6FF70F1
:1017B0000A235722194600902F2000F0E1FB4FF634
:1017C000FF700A23652219460090342000F0D8FBF0
:1017D0004FF6FF700A236E2219460090392000F060
:1017E000CFFB4FF6FF700A235422194600903F208A
:1017F00000F0C6FB4FF6FF700A23682219460090DE
:10180000442000F0BDFB4FF6FF700A2375221946F5
:101810000090492000F0B4FB4FF6FF700A234622E7
:10182000194600904F2000F0ABFB4FF6FF700A23E3
:10183000722219460090542000F0A2FB4FF6FF7070
:101840000A23692219460090592000F099FB4FF6AF
:10185000FF700A235322194600905F2000F090FB8E
:101860004FF6FF700A23612219460090642000F0B1
:1018700087FB4FF6FF700A237422194600906920F7
:1018800000F07EFB4FF6FF700A23532219460090AA
:101890006F2000F075FB4FF6FF700A237522194682
:1018A0000090742000F06CFB4FF6FF700A236E224C
:1018B00019460090792000F063FB0EBD042808D182
:1018C0004FF0E021096941F004014FF0E02211617D
:1018D00007E04FF0E021096921F004014FF0E02218
:1018E000116170477047000010B504466FF00400A6
:1018F000FFF7E4FFE11704EB5171C1F3C701074A99
:1019000011701046007800EB4001C1EBC0104FF69B
:10191000FF7101EAC0000249088010BD18000020D4
:101920001A00002010B51348006840F0010011496A
:10193000086008464068104908400E49486008465B
:1019400000680E4908400B4908600846006820F40A
:10195000802008600846406820F4FE0048604FF48C
:101960001F008860FFF7B2FB4FF000600449086079
:1019700010BD0000001002400000FFF8FFFFF6FE5F
:1019800008ED00E070B5002640F22551374800F020
:10199000C4F800285DD0354800F07AF93449087061
:1019A00034480078A8B100203249087030480078E7
:1019B00010B1BB2805D100E00AE000202E490860E4
:1019C00006E02D4804682A4800782C49085500BFD5
:1019D00013E027480078AA2803D101202549087080
:1019E00000BF254804680068401C2349086020485F
:1019F00000782249085500BF00BF204800781F49E1
:101A0000497800EB01241C480168A01C814219D1CF
:101A1000C4B1012503E01948405D46406D1C1648DD
:101A200000688542F7D36EB9012015490870134844
:101A300000791249497900EB012012490860002021
:101A40000C4908700C480068322802D300200A496B
:101A5000086040F22771054800F05FF828B10022C5
:101A600040F22771014800F082F870BD0038014053
:101A70005000002045000020480000207A68002027
:101A8000440000204C00002001F40072B2F5007FF9
:101A900000D100BFCA430280704721B1828942F45D
:101AA0000052828104E082894DF6FF731A408281E0
:101AB0007047000010B504464FF416500E490860F8
:101AC00000208880C880088188810C2048812046B9
:101AD00000F072F8012240F22551084800F047F862
:101AE000012240F22771054800F041F80121034826
:101AF000FFF7D3FF10BD0000386800200038014018
:101B000002460020B1F5007F00D100BF13880B40D2
:101B10000BB1012000E00020704770B502460024A0
:101B200000230025002040F66A16B14200D100BF14
:101B3000C1F3421501F01F03012606FA03F3012D3C
:101B400002D19689334006E0022D02D1168A334035
:101B500001E0968A33400C12012606FA04F4168836
:101B6000344013B10CB1012000E0002070BDF0B58D
:101B70000346002400260025002040F66A17B942DB
:101B800000D100BF1846C1F3421401F01F0601271F
:101B900007FA06F5012C01D10C3004E0022C01D12A
:101BA000103000E014301AB107682F43076002E0DC
:101BB0000768AF430760F0BD2DE9F04786B00546E2
:101BC0000E460024A24600BFA1460027B08900B1FE
:101BD00000BF2F462C8A4CF6FF700440F088044367
:101BE0002C82AC894EF6F3100440B088318908434A
:101BF000718908430443AC81AC8A4FF6FF4004402E
:101C0000B0890443AC8201A8FFF774F91F488742EA
:101C100002D1DDF810A001E0DDF80CA0A88900F4E5
:101C2000004040B10AEBCA0000EB0A1031684900DD
:101C3000B0FBF1F807E00AEBCA0000EB0A103168CC
:101C40008900B0FBF1F86420B8FBF0F00401200932
:101C5000642101FB1089A88900F4004040B13220C2
:101C600000EBC900B0FBF1F000F00700044308E00E
:101C7000322000EB09106421B0FBF1F000F00F00FE
:101C800004432C8106B0BDE8F08700000038014015
:101C900001468888C0F308007047C1F308028280BB
:101CA000704700BFFEE7000070B505460C46FEF722
:101CB000D3FD4FF480400C4908608010086080001C
:101CC000091F08606420FEF7F0FD2846FEF776FD48
:101CD0002046FEF773FD6420FEF7E7FD4FF48040D9
:101CE0000149086070BD0000140C014010B50446A5
:101CF00000218E20FFF7D8FFFEF7AEFD4FF48040A5
:101D000016490860801008608000091F0860642080
:101D1000FEF7CBFDBE20FEF751FDA079FEF74EFD8C
:101D20006079FEF74BFD2079FEF748FDE078FEF77D
:101D300045FDA078FEF742FD6078FEF73FFD207874
:101D4000FEF73CFD8020FEF739FD6420FEF7ADFD77
:101D50004FF480400149086010BD0000140C0140A0
:101D600070B504460D4600218E20FFF79DFFC02070
:101D700040EA4400C6B229463046FFF795FF80216D
:101D80008E20FFF791FF70BD70B504464FF480714F
:101D90001948FEF772FF012001F0E6FA4FF40071D6
:101DA0001548FEF76AFF00251EE04FF480511248E7
:101DB000FEF763FF04F0800028B14FF400610E4885
:101DC000FEF75DFF04E04FF400610B48FEF755FF9E
:101DD0006006040E4FF480510748FEF750FF0120C3
:101DE00001F0C2FA681CC5B2082DDEDB4FF40071A9
:101DF0000148FEF744FF70BD0014014070B5044671
:101E00004FF480711B48FEF738FF012001F0ACFA57
:101E10004FF400711748FEF732FF012001F0A4FAD9
:101E200000251EE04FF480511248FEF726FF04F013
:101E3000800028B14FF400610E48FEF720FF04E057
:101E40004FF400610B48FEF718FF6006040E4FF4D4
:101E500080510848FEF713FF012001F085FA681C45
:101E6000C5B2082DDEDB4FF400710248FEF707FF14
:101E700070BD00000014014002E008C8121F08C134
:101E8000002AFAD170477047002001E001C1121FFB
:101E9000002AFBD17047000008B57F204B23024683
:101EA000002100901648FFF719FB40F21D530F2246
:101EB0002021112000F02CF840F21A53102230217A
:101EC000212000F025F840F2175311224021312043
:101ED00000F01EF840F2145312225021412000F06D
:101EE00017F840F2115313226021512000F010F82E
:101EF00040F20E5314227021612000F009F808BD51
:101F0000A4220020002100E0491C8142FCD370473C
:101F10002DE9F05F06460C4617469846A346002575
:101F200027E0164800EBC71010F825A04FF0000975
:101F300019E00AF0800020B142462146304600F008
:101F40005FF84FEA4A604FEA106A601CC4B2A4EB23
:101F50000B00102803D15C46701CC6B206E009F1E4
:101F6000010000F0FF09B9F1080FE2DB00BF681CB7
:101F7000C5B2202DD5DBBDE8F09F0000241800205D
:101F80002DE9F05F07460C4690461D46A346002605
:101F90002FE0A8F12000194901EB801010F826A0CD
:101FA0004FF000091FE00AF0800028B121463846B2
:101FB0000A9A00F025F804E000222146384600F095
:101FC0001FF84FEA4A604FEA106A601CC4B2A4EBE3
:101FD0000B00A84203D15C46781CC7B206E009F1A9
:101FE000010000F0FF09B9F1080FDCDB00BF701C35
:101FF000C6B2AE42CDDBBDE8F09F00006400002019
:1020000070B506460D4614461520FFF7BDFE304656
:10201000FFF7F4FE7520FFF7B7FE2846FFF7EEFE48
:10202000FFF757FAC4F30720FFF7E8FEE0B2FFF727
:10203000E5FE70BD10B5FEF726FE172008490870B2
:1020400006204870102088701420C8701320087172
:1020500040204871002088710846FFF747FE10BDF8
:102060001C00002010B54048FEF7D4FF3E4A10780F
:10207000C21700EB12721211A0EB02123A4B197840
:10208000CB1701EB13731B1103EB830302EB43022A
:10209000364B1A70344A9078C21700EB1272121144
:1020A000A0EB0212304B9978CB1701EB13731B1185
:1020B00003EB830302EB43022D4B1A702A4AD078BC
:1020C000C21700EB12721211A0EB0212264BD97844
:1020D000CB1701EB13731B1103EB830302EB4302DA
:1020E000244B1A7020484078234908701E4A107902
:1020F000C21700EB12721211A0EB02121A4B1979DF
:10210000CB1701EB13731B1103EB830302EB4302A9
:102110001A4B1A70144A5079C21700EB127212113E
:10212000A0EB0212104B5979CB1701EB13731B1163
:1021300003EB830302EB4302114B1A700A4A9079B6
:10214000C21700EB12721211A0EB0212064B997922
:10215000CB1701EB13731B1103EB830302EB430259
:10216000084B1A7010BD00001C0000202300002046
:102170002400002025000020260000202700002049
:10218000280000202900002010B500210846FEF795
:1021900053FCFFF781FE10BDAAB02422F74921A805
:1021A000FDF7E2FF002016901790159000BF00BFCA
:1021B00012901190109000BF4FF4F0700F905A20C1
:1021C0000E9000200C9000BF00BF00BF0F98A0F53C
:1021D000F0700C2190FBF1F00E9890FBF1F0FEF7FF
:1021E00095FCFEF7A9FCFEF7B7FD4020FFF77CFB4E
:1021F000FFF798FB01F04EF8FFF71CFF00F02AFFF5
:1022000000210846FEF718FCFDE3DD480068129047
:10221000DC4800681090FFF725FF00F029FFDA483E
:1022200000688C2802DD8C20D7490860D7480078E8
:10223000012822D1D648007800281EDBD448007837
:1022400006281ADC00200B9014E00021D14A0B98DC
:1022500002EB001001600B9802EB001081600B98FC
:1022600002EB001041600B9802EB0010C1600B986C
:10227000401C0B900B988C28E7DB119801281CD18F
:10228000C3480078002818DBC1480078062814DC11
:1022900000200B900BE0002121AA0B9842F820109F
:1022A00018AA0B9842F820100B98401C0B900B9822
:1022B0000928F0DB002116911791B74800680A2819
:1022C00006D2DFE800F005063E76AEE6FDFCFBFA3E
:1022D0000CE221991298084421900121AD48AA4AA4
:1022E000126800EB021001600C21129890FBF1F0D3
:1022F000401CA849A44A126801EB02118860A34857
:102300000078401E102101EB0011A2489E4A12687D
:1023100000EB021041601098A0F5F0700C2190FBCA
:10232000F1F015309B49984A126801EB0211C86020
:1023300095480068401C9449086000219648016057
:10234000D4E12299129808442290022191488E4AA1
:10235000126800EB021001600C21129890FBF1F062
:10236000401C8C49884A126801EB0211886087483A
:102370000078401E102101EB00118648824A126845
:1023800000EB021041601098A0F5F0700C2190FB5A
:10239000F1F015307F4A7C49096802EB0111C860F1
:1023A00079480068401C7849086000207A49086034
:1023B0009CE1239912980844239003217548724A9E
:1023C000126800EB021001600C21129890FBF1F0F2
:1023D000401C70496C4A126801EB021188606B481E
:1023E0000078401E102101EB00116A48664A12680D
:1023F00000EB021041601098A0F5F0700C2190FBEA
:10240000F1F015306349604A126801EB0211C860AF
:102410005D480068401C5C49086000205E49086017
:1024200064E1249912980844249004215948564A9A
:10243000126800EB021001600C21129890FBF1F081
:10244000401C5449504A126801EB021188604F4801
:102450000078401E102101EB00114E484A4A1268D4
:1024600000EB021041601098A0F5F0700C2190FB79
:10247000F1F015304749444A126801EB0211C86077
:1024800041480068401C40490860002042490860FB
:102490002CE1259912980844259005213D483A4A97
:1024A000126800EB021001600C21129890FBF1F011
:1024B000401C3849344A126803E0DFE0A6E06DE0D2
:1024C00024E001EB0211886030480078401E1021A2
:1024D00001EB00112F482C4A126800EB02104160FA
:1024E0001098A0F5F0700C2190FBF1F015302949FF
:1024F000254A126801EB0211C86023480068401C9D
:1025000021490860002024490860EFE026991298CC
:102510000844269006201F491B4A126801EB02114D
:1025200008600C21129890FBF1F0401C1949164AE2
:10253000126801EB0211886014480078401E1021D7
:1025400001EB0010134A1049096802EB01114860C1
:102550001098A0F5F0700C2190FBF1F015301146A9
:10256000094A126801EB0211C86007480068401C64
:1025700005490860002008490860B7E07833000882
:10258000400000203800002000000020260000202D
:1025900027000020785F002054000020279912981F
:1025A000084427900720FE49FE4A126801EB0211F9
:1025B00008600C21129890FBF1F0401CF849F94A90
:1025C000126801EB02118860F7480078401E102164
:1025D00001EB0010F249F34A126801EB0211486066
:1025E0001098A0F5F0700C2190FBF1F01530EC493B
:1025F000EC4A126801EB0211C860EA480068401C0E
:10260000E84908600020E94908606FE028991298BD
:10261000084428900821E248E24A126800EB0210C0
:1026200001600C21129890FBF1F0401CDC49DD4A5E
:10263000126801EB02118860DB480078401E10210F
:1026400001EB0010D649D74A126801EB021148602D
:102650001098A0F5F0700C2190FBF1F01530D049E6
:10266000D04A126801EB0211C860CE480068401CD5
:10267000CC4908600020CD49086037E029991298BC
:10268000084429900920C649C64A126801EB021184
:1026900008600C21129890FBF1F0401CC049C14A1F
:1026A000126801EB02118860BF480078401E1021BB
:1026B00001EB0010BA49BB4A126801EB02114860F5
:1026C0001098A0F5F0700C2190FBF1F01530B44992
:1026D000B44A126801EB0211C860B2480068401C9D
:1026E000B04908600020B149086000BF00BF002069
:1026F0000D901CE021A90D9851F820000790FDF7DE
:10270000CDFECDE90801DDE91623FDF7F7FE09D876
:1027100021A90D9851F820000A90FDF7BFFECDE9E0
:10272000160100E000E000BF0D98401C0D900D98D0
:102730000928DFDB002014902DE021A9149851F81E
:10274000200000B3149851F820000190FDF7A6FE78
:10275000CDE90201DDE91623FDF731FE0022944B9D
:10276000CDE90401FDF7B9FD0022924BCDE9060148
:10277000FDF70CFDCDE90801FDF7A1FE18AA14999B
:1027800042F8210004E0002218A9149841F8202002
:102790001498401C149014980928CEDB86480168D0
:1027A00001208843002872D00C9830B9FFF7ECFC68
:1027B0000A20FEF762F800F0C7FD01200C907F4868
:1027C000016804208843002871D01598012803D09F
:1027D0000120159000F0B8FD794800780D2874D2DA
:1027E000DFE800F073070E151D252D353D454D56CC
:1027F00066001F23002211461020FFF789FB64E0CA
:102800001F23012200211020FFF782FB5DE04FF41F
:10281000FC63022200211020FFF77AFB55E04FF401
:10282000FC63032200211020FFF772FB4DE04FF400
:10283000FC63042200211020FFF76AFB45E04FF6FD
:10284000F373052200211020FFF762FB3DE04FF6F5
:10285000F373062200211020FFF75AFB35E04FF6F4
:10286000F373072200211020FFF752FB2DE04FF6F3
:102870008073082200211020FFF74AFB25E04FF665
:102880008073092200211020FFF742FB1DE09CE32A
:102890004FF68073092200210846FFF739FB4FF6F7
:1028A0008073002211461020FFF732FB0DE054E147
:1028B0001F23092200210846FFF72AFB1F230122BC
:1028C00000211020FFF724FB00BF00BF4FF6FF736D
:1028D0000A2200212020FFF71BFB4FF6FF730B227B
:1028E00000213020FFF714FB4FF6FF730C2200216C
:1028F0004020FFF70DFB4FF6FF730D220021502003
:10290000FFF706FB4FF6FF730E2200216020FFF752
:10291000FFFA1F20F821CDE900101898401D80B261
:102920001C23142201460A900520FEF755F84FF6A5
:102930001F000821CDE9001021980A901898C01DA9
:1029400080B20323099014210A9AFEF777FAE02057
:102950000721CDE900101998401D80B226231E22C0
:1029600001460A900520FEF737F84FF4FC60082175
:10297000CDE9001022980A901998C01D80B2032357
:1029800009901E210A9AFEF759FA7F20CE21CDE93F
:1029900000101A98401D80B230232822014611E011
:1029A000785F002000000020260000205400002056
:1029B000000054400000F03F081C0140081801408E
:1029C000240000200A900520FEF706F84CF67F60F0
:1029D0000821CDE9001023980A901A98C01D80B2F2
:1029E0000323099028210A9AFEF728FA0020F421EF
:1029F000CDE900101B98401D80B23A2332220146D7
:102A00000A90052000E0E6E2FDF7E6FF4FF474408F
:102A10000821CDE9001024980A901B98C01D80B2AF
:102A20000323099032210A9AFEF708FAF920F621C9
:102A3000CDE900101C98401D80B244233C22014681
:102A40000A900520FDF7C8FF4FF2F9600821CDE993
:102A5000001025980A901C98C01D80B2032309908D
:102A60003C210A9AFEF7EAF9F7200F21CDE9001080
:102A70001D98401D80B24E23462201460A90052033
:102A8000FDF7AAFF40F6F7700821CDE9001026985F
:102A90000A901D98C01D80B20323099046210A9A0E
:102AA000FEF7CCF90F20F021CDE900101E98401D53
:102AB00080B25823502201460A900520FDF78CFF72
:102AC0004FF20F000821CDE9001027980A901E98B8
:102AD000C01D80B20323099050210A9AFEF7AEF977
:102AE000EB20BF21CDE900101F98401D80B262236A
:102AF0005A2201460A900520FDF76EFF4BF6EB7057
:102B00000821CDE9001028980A901F98C01D80B2B6
:102B1000032309905A210A9AFEF790F94020C42114
:102B2000CDE900102098401D80B26C23642201463C
:102B30000A900520FDF750FF4CF240400821CDE9F6
:102B4000001029980A902098C01D80B20323099094
:102B500064210A9AFEF772F93DE21598022803D023
:102B60000220159000F0F0FBFEF7ECFC1F20F8218E
:102B70001A231522CDE900101E211020FDF72CFF8D
:102B8000E020072126231E22CDE900101146102047
:102B9000FDF722FF0021F42043233A22CDE9000172
:102BA0001E211020FDF718FFF7200F214E2345228C
:102BB000CDE900101E211020FDF70EFF1F20F82187
:102BC00056235022CDE900101E211020FDF704FFEE
:102BD000E020072126232422CDE900102E212020E9
:102BE000FDF7FAFEEF20FE213E233522CDE900104D
:102BF0002E212020FDF7F0FEF7200F214E23452245
:102C0000CDE900102E212020FDF7E6FE1F20F8213F
:102C100024231E22CDE900103E213020FDF7DCFEEA
:102C2000F920F62128232422CDE900103E2130206E
:102C3000FDF7D2FE0020F4213E233522CDE900101D
:102C400019463020FDF7C8FE4020C4214E234522FE
:102C5000CDE900103E213020FDF7BEFEEB20BF2164
:102C60001A231522CDE900104E214020FDF7B4FEB5
:102C7000E020072126231E22CDE900104E2140200E
:102C8000FDF7AAFEF7200F2143233A22CDE90010D9
:102C90004E214020FDF7A0FE002013908FE1CF4988
:102CA000139801EB001000680A282FD2DFE800F02B
:102CB0002E052F5983ADD7FEFDFC1F20F821CDE94D
:102CC0000010C649139801EB00108189C34A13987C
:102CD00002EB00100089084480B211460A90139854
:102CE00001EB0010808980B20990139801EB00106D
:102CF00080880E3080B20890139801EB0010808815
:102D000080B2079008A90EC9FDF766FE53E1E020E6
:102D10000721CDE90010B149139801EB001081891A
:102D2000AE4A139802EB00100089084480B21146A5
:102D30000A90139801EB0010808980B209901398D3
:102D400001EB001080880E3080B20890139801EBE0
:102D50000010808880B2079008A90EC9FDF73CFEDC
:102D600029E17F20CE21CDE900109C49139801EB89
:102D700000108189994A139802EB001000890844D9
:102D800080B211460A90139801EB0010808980B23E
:102D90000990139801EB001080880E3080B20890E3
:102DA000139801EB0010808880B2079008A90EC923
:102DB000FDF712FEFFE00020F421CDE90010874965
:102DC000139801EB00108189844A139802EB0010DC
:102DD0000089084480B211460A90139801EB001054
:102DE000808980B20990139801EB001080880E3022
:102DF00080B20890139801EB0010808880B2079091
:102E000008A90EC9FDF7E8FDD5E0F920F621CDE9C6
:102E100000107249139801EB001081896F4A1398D2
:102E200002EB00100089084480B211460A90139802
:102E300001EB0010808980B20990139801EB00101B
:102E400080880E3080B20890139801EB00108088C3
:102E500080B2079008A90EC9FDF7BEFDABE0F720D0
:102E60000F21CDE900105D49139801EB0010818915
:102E70005A4A139802EB00100089084480B21146A8
:102E80000A90139801EB0010808980B20990139882
:102E900001EB001080880E3080B20890139801EB8F
:102EA0000010808880B202E05BE030E005E007902F
:102EB00008A90EC9FDF790FD7DE0EF20FE21CDE9C8
:102EC00000104649139801EB00108189434A13987A
:102ED00002EB00100089084480B211460A90139852
:102EE00001EB0010808980B20990139801EB00106B
:102EF00080880E3080B20890139801EB0010808813
:102F000080B2079008A90EC9FDF766FD53E0EB20DB
:102F1000BF21CDE900103149139801EB00108189E0
:102F20002E4A139802EB00100089084480B2114623
:102F30000A90139801EB0010808980B209901398D1
:102F400001EB001080880E3080B20890139801EBDE
:102F50000010808880B2079008A90EC9FDF73CFDDB
:102F600029E04020C421CDE900101C49139801EB51
:102F700000108189194A139802EB00100089084457
:102F800080B211460A90139801EB0010808980B23C
:102F90000990139801EB001080880E3080B20890E1
:102FA000139801EB0010808880B2079008A90EC921
:102FB000FDF712FD00BF00BF1398401C1390084995
:102FC00013980968884206DA69E600210846FDF789
:102FD00033FD00200C90FFF718B90000785F002047
:102FE0000000002010B54FF4007009490880182037
:102FF000C870032088700748FDF7B4FD4FF4806067
:10300000034908800420C8700248FDF7ABFD10BDDD
:10301000580000200008014008B54FF4E060FDF7BB
:1030200091FE25208DF8000000208DF801008DF81C
:10303000020001208DF803006846FDF74BFE08BD35
:1030400010B5FEF76FFC012144F21500FDF742FFB9
:1030500010BD000010B5FFF7F3FFFFF7DDFFFFF72E
:10306000C1FF0248FEF726FD10BD000000380140F8
:1030700010B55220FDF702FD00287DD1FDF726FB9B
:103080000028FAD17348007854280ED1714840784E
:10309000EB280AD16F488078FE2806D16D48C078A9
:1030A000DA2802D101206C4908706A480078342877
:1030B0000ED1684840782A280AD166488078FB28D3
:1030C00006D16448C078DA2802D10220624908702B
:1030D00060480078B4280ED15E484078A5280AD10F
:1030E0005C4880780D2806D15A48C078DB2802D188
:1030F00003205949087057480078D4280ED1554804
:10310000407835280AD153488078152806D151488F
:10311000C078DB2802D104204F4908704D48007860
:1031200024280ED14B484078D3280AD149488078CA
:103130000B2806D14748C078DB2802D10520464934
:1031400008704448007874280DD14248407850B93E
:1031500040488078F82806D13E48C078DA2802D165
:1031600006203D4908703B480078842810D1394832
:103170004078B6280CD100E031E03648807802284B
:1031800006D13448C078DB2802D1072032490870C4
:1031900030480078D4280ED12E4840788F280AD1A4
:1031A0002C488078122806D12A48C078DB2802D122
:1031B00008202949087027480078A42812D12548FA
:1031C000407824280ED123488078F9280AD1214854
:1031D000C078DA2806D109201F49087002E00020D3
:1031E0001D4908701C48007888B11C48007870B9E7
:1031F0001B480078C0EB00101A49097801EB8000E9
:1032000019490860002019490860194908601248E6
:103210000078B8B911480078A0B111480078C0EB27
:1032200000101049097801EB800010490860084639
:1032300000680D490968401A0D4908600748007880
:103240000C49086004480078044908700A48FEF7F1
:1032500059FE10BD30000020340000203500002051
:103260002700002028000020380000203C0000201B
:103270004000002054000020404B4C0010B5024696
:10328000012000E050430B1EA1F10104E1B2F9D18D
:1032900010BD000000B587B0012144F20500FDF724
:1032A00019FE4FF40070ADF8180003208DF81A00D5
:1032B00018208DF81B0006A92148FDF753FC4FF498
:1032C0008060ADF8180004208DF81B0006A91C488A
:1032D000FDF748FC4FF4165002900020ADF80C00AA
:1032E000ADF80E00ADF81000ADF814000C20ADF8EC
:1032F000120002A91348FEF75FFC01211148FEF7F6
:10330000CCFB012240F225510E48FEF730FC402153
:103310000C48FEF7B9FB4FF4A060FDF713FD252024
:103320008DF8040000208DF805008DF806000120BE
:103330008DF8070001A8FDF7CDFC07B000BD000027
:10334000000801400038014008B500210846FDF79B
:1033500073FB7F204B230246002100900148FEF7BB
:10336000BDF808BDA422002000BF011EA0F101028B
:10337000D0B2FAD1704700005C0000002A000000C3
:103380000C000000290000003E00000000000000CA
:103390000C000000220000000C000000BC330008FC
:1033A00000000020785F00006C0600082C5B00081D
:1033B000785F0020480D0000881E000843010001CE
:1033C00020050102030404000A910607080902040B
:1033D0000608000102397A3C1220401260040231D2
:1033E0004078122438923C080132BC1232C00235B7
:1033F0007FF81278BC565E0002311EFC520E3C1261
:103400007C4002351284064160C0123EC802314140
:103410007C0639427825FC1618045608C406311873
:1034200040520840523E0C013284023903C0D20897
:1034300004013280023902805A01440E35384003BB
:103440001E1C3C0352220809363C5622800132C819
:103450001E3680035E2A840301367C522A480932D4
:10346000801A0C785A16400E35063C045632000D70
:1034700032FC04023D1E406D4005013680063D369B
:1034800040523A400E3D3C80040E3D12C0040E3DB9
:103490001384045E24CC0401323CA1040E350044A4
:1034A00005023924405E3044030E3130F8055E3C9D
:1034B000C0060A356E442D80045E8084049E00C8D8
:1034C000039E0F1C08021980FC523F40D224085270
:1034D0003C580E2103400721785231485220505267
:1034E0002110061D1A7CD23F386108D211600225D6
:1034F0000048E1C8052A0002110008062D200065D9
:1035000040021D3778E5005E04D00661080A351FC9
:10351000CC02253F78091648693002353FC06DC896
:10352000060A2D338002210008091AC06D3C035A97
:1035300007C006253810D23F309606800E25804001
:10354000069A00F06D0003DE3198030522B80912D7
:1035500080022D1880022D21800D16000306253FC4
:10356000C06DA8030E35280003D22008AD10040555
:103570002A38E940DA01180D1ABC05ADC804520317
:10358000800E251C00049E3C7005928010E9880D79
:103590001A7C0D9E804007AD50050D224003DA20B5
:1035A0002861780E2518C0046DF0035A23B85A2CF0
:1035B000C00E2530400569240E397FBC0E5E6008C0
:1035C0000B0D36080C0E3D7F3C0F012AE80D120052
:1035D0000CA104013E840D2E000D5E056804D20A84
:1035E000080E250F0007ED7803021108400D228810
:1035F0000D9E07100E5E80D80B023180380E112808
:10360000800602218040E500022D06C0D208780E17
:103610002D2888042D00041EC0F0055E0D481152AF
:103620000C100E25080004051A80022980C00A31FA
:103630002FD05640B85240400E2DC03C12A1C05E63
:1036400002F806062D0D80062D20F8DE0078050212
:103650001D0810051E3806350F80E9F861080A2993
:1036600007789A40405A08480E350F4003A140960B
:10367000C0E0052E000E3108C80FAD88040E3109D8
:1036800080030D1288040126380536C0DE080008C4
:10369000ED500D0E2108C010AD3808D20F100E25C8
:1036A0000CB80302150DC80926405E0EC803012E92
:1036B000C061C8DE0940060E290C40045E08C01532
:1036C0000E394184070E35FFBC0F52417C0E39087C
:1036D000FC075E80FC040E4140C815025502080D2F
:1036E0002A4403023908049E108C030E39109415E5
:1036F000023D1108D220D00D2A000F5EFCCC0656E8
:1037000028D85EC8180FDE08EC0652083052C828C8
:10371000924808527F480D2A8C095204B85E04D49E
:1037200015A10852239802153E205E22481921282F
:103730005EC4140BA15001227C6104520874523003
:10374000085EC0280A2D30195E64F8159E34400AC0
:1037500061BC6DC80F617C0E29384004021D010850
:103760009E02280C5EF82808021904049E080C1119
:1037700006297880AD4C065E30D00D0E19C09C1A1B
:103780009E7E4813DEC0140E0E2D184405A1805EE7
:10379000044C0325809EE0E01AE9D45607100E1170
:1037A000000412DE04640E0D42780469D80E514202
:1037B0008004DE0414075E30600325805E446C05DF
:1037C000011208928408967F100D328C179E1F00FC
:1037D000046D78035E88180D9EF0180C5226105266
:1037E0002A209E2378049E1448040D2EF805962363
:1037F000D09E085C176DE403217812E4085E25640E
:103800000C5E7840161227A05EE8481D5228285EFC
:103810002488070E2520C81C5E00C00B2D60039E67
:1038200050180DAD641B5E22880421F85ED00003A1
:1038300052D01092D4089E2BA8030D2604192D3CBB
:10384000069619686D601C9E0480055222F05E2168
:1038500098039E22C012AD20050E2D2000030D16E8
:1038600054126D980D5E12581621A45AA0289EF08D
:10387000F41D9E020012DE9048059E083803EDA458
:10388000030D22DC1C0E11F04C046D98045E15AC87
:10389000065E14780E5E27B0049227C46D8C059ADC
:1038A00004E0091280D240085280602D10125E1789
:1038B000880456FF005EB6B81A5E2BA0040E1118DD
:1038C000D00E9EFE08155E105407521FB00E191040
:1038D000280E021540085E58980F610852B0085E25
:1038E000F0F80352D00865805EA0480F5EA8240A55
:1038F0000E219818169E0ED00A6D000E69089E6063
:10390000980E5E17F00E5E2D2C085E25A8049E3FD3
:10391000D0179EFED8135210385616080E251928B7
:103920000FDE184C09DE101C065E266C0B5E279815
:1039300003DE2884060E64303F220E1420E9145062
:103940000B082000406343632518C00EE0080021E7
:103950000418A310823E5C0508612124F5190E119C
:10396000209D140D14B3140D175416100510821059
:10397000A292025241D2052C00140B10600860CEB6
:1039800092DF165AE70C4E40AF1103100841DA9C43
:10399000059492C638C716022820ECD5481DCF0CD6
:1039A00022080631900F7F08615724118860076351
:1039B00009B5B42103FE0D12C112231082AA11B65B
:1039C0003A2102091C000E1E208D143405082131F5
:1039D00045080942000E3E2012035B0862D8AD166E
:1039E00003ED51116C0420630CC1182C0508625AB8
:1039F000CB100345C2E8072124086108201291DAA0
:103A0000EE20CD0E4C070820102110210E11053A92
:103A1000022007084108414228069D681F062EE340
:103A2000FC11FE0C051921420908991F35AA9004C2
:103A30006131A6DEAE610603B1C4450A3D0F06EC56
:103A400005080039864603214C1006104128E41071
:103A50001E0D3F6527BC082010A2632C18C32C251F
:103A6000FE28BA040D1F5F10D4050862634DC0F62E
:103A7000209804041020210414957811867F0821D1
:103A8000E31A3A4012EF006BDB093DFE033C0810DD
:103A9000005A4910011008040939BE0D13AC231D4A
:103AA000A4050D301003BC0520212308E126C8051C
:103AB00008412125680C0515000039C7F8033D3081
:103AC000057D06034D6D164DDC04F804005A8A4C42
:103AD0000C104321106139666ACB100128C30821FC
:103AE0000821D8060D3B162311FA0D121A06ADD285
:103AF000031D22050F1218E314060D1188043D0062
:103B000003491A11ECF341085A18070800522949D1
:103B1000A7006E2170070D50EB071DBE073D9C04EA
:103B20001C0529652124BA050D2244050D1D051D1E
:103B30002F108200042D04062DB8071D0C030D1252
:103B4000240361504DE405AC0420080046086D9A3A
:103B500004520802F5880E17613405093A16E5DCAF
:103B60009E20CD1F452CDA81DACDF525712810076E
:103B7000A51452AA0841C61D76043D66039DD803CC
:103B80001D1E0711EACF106100061D00055EA72467
:103B90000429426EA3B405251A0A5308CC0915C09E
:103BA0005D2C05EF18C2D6062D80033F0820420584
:103BB00052010E0E13213722194CA805AD75738ED4
:103BC000EC3DC2089D78057D7A067902198086252C
:103BD00000493E3F20E4FE080D17360A6D560705E2
:103BE00044FEBD9A061E40DE09ADE4054C04C31038
:103BF000E4A6072DD6080111F8BD10062D5A060DB2
:103C00001C4A0A9F5AEB00079E20DC033D0E070961
:103C100021DC3D32063C0518E318E31A0B0D540273
:103C20000C8D8D176C06A24B4C00A2EA0A11729DF6
:103C3000FC056F8C30A80A3DB50FB621540E162036
:103C4000D40A91445D0003F728E4560D1B66044D29
:103C5000120A2DC2072D1E0B0D511A0BA50030069E
:103C60008264500904DE2DC7268F2100F20B3C042C
:103C700020AD34C209BDEA0C1DE0070D1ED60A9E18
:103C800041FE06EE004A030E2208AA0A8E20220CEC
:103C90000D3F1C0B0E1300A60C8DFE041C05617D50
:103CA0005400CC0419721EE4612E5602E65E20A276
:103CB00004750E1F18A3F8053D4A06051800D74ADB
:103CC00069AC5D000ABC044A08086A041D3A120A7D
:103CD0001A04FC3F2945680C1D4C080D2FC4090D22
:103CE00030000E1C076174F300A300C40B1C071006
:103CF000A308836B900005C621C00D289E070C0504
:103D0000127C0F31C74208CC0462EB08E0060219AE
:103D100040963C04204A69640D064220F8456E1D19
:103D20006A061E01D80B3E21E00C2D980714046290
:103D3000426BEC3201022005211105001E2DF40E0C
:103D40007C04213A09C5173DC0084F3165C007CD35
:103D5000BA1D11507DC0073DE60B2E21A8031D1A88
:103D600009126104DE6072063E207005BD74043FD6
:103D7000084010086D2C0961722E403A040C07446B
:103D8000292441C620E3F4092608CC4D1C0E32013B
:103D9000F061904006A4428C0043FE3C04004208BF
:103DA000F6063D14062DB2060E1801000E31F03D48
:103DB000E60AB720C3002D0C0E2681BA9D380C4EA2
:103DC0002044114D340BCDFE095E0850083C0542DD
:103DD000061081540B11A60C0F4908400860DEDA6A
:103DE0006B2C106131440820E00A1D72081C05107C
:103DF000E308A30D163E42820614046019240E3611
:103E000023002D00052F8153CE073528AC0510C1A6
:103E10002123430CED00111F3965B4095C0480189F
:103E2000C202061C0601080120A4760E64042108C3
:103E3000012A6E08F2088E415C09AC07080049E8C7
:103E400010016A081E20440B1D140A7A622CBD2240
:103E5000052D100D1D5E0A0A43C30435D45C070806
:103E6000E38CF4218707192D091540062210A510AF
:103E7000C59E1405012364911A25001EA11935BCA5
:103E800004201062460D96040C1C0401A4B2B0116B
:103E9000436000B64C0C22000118637B8F0801318F
:103EA000252E136F10A1C80D3D280F4262C4251E98
:103EB0008749C8005D5E0931E4131903347D240984
:103EC000813C7D520E0D1D8C0B5D9E050E1A2080CF
:103ED000133DCA121C06402A087431DA043E209AA7
:103EE0000A3C0801000229C963B1A318280820016F
:103EF000657D9600831E6F5B4DB00F8DBC082F1043
:103F0000A3D8033F2144AE0B340401945100412453
:103F10001D3C041C082083730D080020C31C1805D9
:103F20000800630C18CD520B324102262128AF083D
:103F300021280B1C072165A57531C63203CD7F0FE3
:103F4000BC04A70801C40F7E4174030D1C52300A43
:103F500020C3041C0511657452E6053DCA06100B0A
:103F600010A408C511677CF50063A01640001EB7B9
:103F70008D1A5C06220022638F63205A20CC4E40AB
:103F8000AC0C2C0521243185D0035C090800B55503
:103F900010412945E00815006C0549E96ACCFC058B
:103FA000DF7BAF2C0A2E2172052D2403180918027D
:103FB000494718011001F21DF20F2218045C086233
:103FC0009CF4528A39E7580C1D720B380510622098
:103FD000A348EE4170133D50100D1BB40D0D117E22
:103FE0000D956C3DB2041D60155C07094500C300CA
:103FF00082C8091C08225C1275770126FE07340668
:104000006201267577001C06014A8B08639403CE73
:1040100081A8047FAD7592095C06009C511882C08E
:104020000D2DDE0448080228C431051883CC7731F1
:10403000868C29FC1DE6036C2318631001200130D7
:10404000024824BB30794940033002400348045001
:104050006640442802388593D03125180E15F8CCD7
:10406000066320C31041340C2D9C079F10C23E0BE9
:104070000D2A0E14CD6C132DD6091404C4434D0023
:104080001A6192140C01006254116DB80209010505
:10409000002C06667DB800A4F80811B68E01D6166D
:1040A0002F0862A00D2DE60E6DD00A2C05080073B6
:1040B0000CB40E4D08091D18114C0601312618626A
:1040C00002072F10C2CA051C09002118C328E418D2
:1040D00022F012242006388530036929BB11C33130
:1040E000DB53D291D2B2CAD1D313CAD3EBB6CAD260
:1040F000D35460270E2405200118425018040842AA
:10410000081E11026D212B7D3C062D6E129D0C07A1
:104110000E13209213CE2082111F6B8D940ECE4170
:10412000C60529DE140700A485D701A7022D0A07BA
:104130001C102201475536449400835C7301878527
:10414000F985202E22B00445B84D960D2DA40D4CB6
:1041500009212418C218C26B2C4C121DE8051DB28F
:10416000132F20C30E034D00061405188352291087
:104170008E64EC0A2C3320A37A8C61284003E4B7C8
:10418000CB13CA92E314E2D3DAB2E2D3EA93EAB4ED
:10419000F316DA53F2D6DA13EA95E274E273DAD35D
:1041A000C2F23803FE7BB4D358047C08412638C4DD
:1041B000392510080511683D16150C082B10826270
:1041C000EC49E8086B2B5C05318529853E054E01DD
:1041D000D8082600D818080100A3651575B7021C79
:1041E00004211905FA03240EC5132F557801E94C53
:1041F000B401A975FA003D0C087FA200020E2DCA79
:10420000053DD2066C060062EB632BA8082D140452
:104210002E310E054E60180829101E104F3B101944
:1042200021236B8B0840188130A481CC894BCAF2C2
:10423000CAB1E2B3EA73F274021408B4EA53F27436
:10424000E212041C1593F275FA96FA76F255F2739F
:10425000EAB3CAB1C35260C7281E041A200A440533
:104260009BCF1821001407108110206ACB0E256EF9
:104270001C06217B6F49A8BC090E2901C4128DFCC4
:10428000088D80092D64041C0AE43BAF6DD70166DC
:1042900000A3FA061C146400C602EF4E1B35781CFE
:1042A00074014855FA01E901E9040514046353D087
:1042B0002C7E43020B4D5E043C062031A6846FF435
:1042C000061E623E031EC1BC093406401860186019
:1042D000A035202C09080041E62122D676E00414FE
:1042E000083002BA50EB15E2F03C31EA73EA74F29E
:1042F00055E9D3F214F255FA75F2B3DAF0DAF0E2D6
:1043000052D9B2FA95F294F293EAB1D30FCB2FC2FD
:10431000F1B29181AC38035105410408162D5612B3
:104320003808215A2930E528C4181C0687B4F5A49A
:104330007374090C042301002106174E61B4039D18
:1043400074172C04401943B40F1C0B31A700A301B0
:10435000464D76136EEC06101C8411C9018901AA22
:10436000469D1DB91DB904354EDF1D1645B83C5498
:1043700001897DD91E1E6318061C0A21004021C533
:1043800063CD114438041C08820081008009204953
:104390001D1414E032C6A611B5EDF773B50B2060FD
:1043A0003120292018A00E2D1A0610064018C0949E
:1043B0004DFE340C22816BF357F275F234EA33FC74
:1043C000101235FA76FA16FA35FA74FB33FDB7FD9A
:1043D00096E291FE281775F2B5E271FB92FD97EC1B
:1043E00012E314DAD5D2F4AA8FABD018481C048299
:1043F00008621409240601ACF549E9F41D36140CD1
:1044000006260152093946DB2F2F084184053D5607
:10441000137DD4121C3508A129C508A108415B2DC4
:104420002AAB0229357745F901272B4F4D3745DA5D
:104430001D7915FB271F0E7D05FC0E1C165C369D95
:10444000565D34D74D78343201E806031042E2005D
:10445000A101225CD0016501A6349202EA442CCF6E
:10446000D86C8AA66FAEEFD7EFEFCAEF26FF68FFD2
:10447000CAEF06FFCAE70A6300314052403160626A
:10448000E239006A076908CAD3DA34F256F25402F4
:10449000100474EA33FA1C2856F9F5FA55F293F32E
:1044A00092FD93FDF5E26FF273F254EA73E2B0FC11
:1044B00074FDB6EB6FF2B3EA54F315D31238021A57
:1044C000072C0621294539E884056B08228269C436
:1044D0005D9C0B0D1FE6111C0418C308A80E3E10AE
:1044E00094185D642A14042008E2C2101EA31A095D
:1044F00012CC1C3225D92E1B247413D135DA369DEB
:104500001E3D169E06DE06BE06BF02184E9E0E7D9E
:10451000263D03F33DFB35570BB002CB0268024842
:1045200002A93D1335343D9546154DD18650CFF344
:10453000C72EC74BD7EBDFC7F7E4FFA1FFA2FF6190
:10454000FFC2FFA3F785F788E6E9EF2BCE47F74FC9
:1045500051A0A32CC2F0EB36EA95F0140674F25287
:10456000F25306180635F1F4FA150E1C0E93CA4ED6
:10457000E3EEEBCEE26FFA93F2940E054C12F2FBEF
:10458000B3FBF2E2CFFA94F234E252E3542802F0A1
:10459000041D421A7C04A210A372176E214C113D17
:1045A00092050E2420D011CE10B21C2D8409101AB1
:1045B0002201063C331413363B05592EBE367C0DC2
:1045C000370DDA1E9E0E7E0EDFFE16FF00102EBE89
:1045D00006DF0EDF0E5C269D475F369D261C25DA22
:1045E0004E9B56FC363A2E7B267B2E565E70970DE0
:1045F000C74AE7C8F7E7EFA5F7C5F7C3FE3006A13E
:10460000FFC1FFA008141EA3FFC4F743EF44F785C2
:10461000FF8AFE6FBB6CDB11EAF4F315FB15F29118
:10462000F271EA5200180414F214F21C0E74EA73C8
:10463000F314EAF1E28FF291E210FC031C0C93E216
:1046400032FB15FAD4FAB4F25418051C0AF4EBF64E
:10465000200120825A6958048EA13E0E2E100616A3
:104660003D56063D64052D20030E31610C0C1014DF
:104670002211A74C12022B2CF71DBA269E1EDF0E0C
:104680007D165DFC10045D067DF63ADE0025061100
:104690000830210EBE1EDE165C26BE1E7D1E7C3F2F
:1046A0003E479F1E5B1E3926555F339F6DCFC9E77E
:1046B000A5FFE3F641FC1260FE12C00212E1021AED
:1046C00080081818C2FFE3EEA4FEF1EC30E2D1E25C
:1046D00072FB76F313FBF5EA91F292021D00031CC4
:1046E00005EA14EA340A051004D5EA3212141072ED
:1046F000F2D3F334E292FAB5FA55FA35F2351A1CD0
:1047000007D4DAD3896B181C0A1C092081ACF2E6A5
:10471000FA94B0A20D1C064008A052A71C1C2D6ADA
:104720000C1DAC140C071B10007AEC7ACC080B356E
:10473000302A182C7E61C40B3D00071DEA07140EB9
:10474000EA4D983E5C265C2F1F065D0EDEE81805DC
:10475000FF0EBF0EF23306DDF612DF0A12BE022094
:1047600025BD0EBD1EFF1EDF165C2E9B2EDB0E5BD5
:104770001EDD267A4675870FC7ECDFE6EFA3F7C28A
:10478000FFC1F7A0F7F641FA410252E00C2D1003E9
:10479000141248FD0CE34FF333E292FBB7F2F4F24C
:1047A000D3EA71E8280E33FA56FA36F236FA97EA67
:1047B00054FAF6061C0FE271EAF2E311E2F2F27229
:1047C000FA54F1D41606240853E2B2C2D04824DECB
:1047D0002E183C1D1220F22C0F6009007C6AEF9706
:1047E000CE32D6745B482158100C0A2520AC11AB90
:1047F000F130C41041EC162D92052DA01E1E42E88A
:1048000007100C84020A35FA1E7D0E9E0EBEF4259A
:10481000F24EDFF2033F06BDFE0324049E067E0037
:1048200010060EDE067C0E2654151EBD269957FE78
:10483000167A1E793612A7F5CFCBF7E6F7C1EC81D1
:10484000F0E5021009C1FF82FEC7E3CAF3DE1C0CCB
:10485000FC58EAB3E272E2B1E2B1EA020315E61CE7
:104860000657F216F215F4041E53F8032DFA032C22
:1048700009D2FC77FC37F252FA1C053C0B95EA5042
:10488000DACE9A8B20001850111310A0FECC19809C
:10489000E797D734D733DF32DEF2F7B6C693B633B5
:1048A00010C0104030612828191DAA170F134A495B
:1048B000E01C8D801A500E6101864CB4022B2D999C
:1048C0001E1C16BFF652BE026DF80449FE16DF0428
:1048D00010049E069D021C12BE0E9C26B95FFC674A
:1048E000FB56F3978ECFEAEFE6E60485F649F6D459
:1048F00004C1FFC106141CC1FFA4FF0AC30AEB5385
:10490000F353EAF2E291DAB0EBF2FD57EB11F292D7
:10491000FA55E61A36E81654EA1C0F12EA54F295D4
:10492000EA74DA31DA11FA95FA0A091431EA93E3F2
:104930002EFD53FE76412131021060634708C0A569
:104940006DD6F2DF52DF51DF90DF4FE751DF11D735
:1049500033BE7108C021205A46838C39A42091E2CD
:104960000D1452164E08F00E1E20C406200BC30272
:104970004A2D15361A15FA1EE01EDFEA0496DF00EE
:1049800036DF1241121E9E1A031C069D1F1F0EBD0C
:1049900006042C0DBD169A2E566F559FD1D7EAEFFF
:1049A000EA0561FA0615C1002D04031C1CA1FF8352
:1049B000FEE8BB48DB2FEB52FB73FB94E331FDB702
:1049C000DBEFFC13F2B2F213FE051E35F0091D0EEB
:1049D000082C04FAB5F2FC071D16081C05EA53FA68
:1049E000B61404AC3234EA92DAEEFD32FE76BD0F34
:1049F00010206B47DF14C6B0EFF4E750EFD1E74F5C
:104A0000DF4DDF4EDF70D710DF72DF538CEADF55EA
:104A1000D6B4D694CE757B442D9E0B0C0415290478
:104A200008142E180E0020430C01E802AB46DC26C9
:104A3000BC16F45F071FEC0456BEF845FC41141485
:104A40000C7D1F1F1EDE1E9D3FDF16DC021C0C9D11
:104A50000E9D2E997F33C7EEE785E6061AC1E2F672
:104A6000E1F0C102251C1C1AC2FF67F589FD2FDB8E
:104A70002EDAB0EAB1EAD0FD34D34CD28EE251FA4C
:104A800074E604140655EA14F234021C0873FAB4EE
:104A9000FA74E9D1FC0A1272021A7302101874F245
:104AA000F1E34FBB2CFE55D611D6B1FFF5DF51D740
:104AB0002FDF6FF7F0FC1C166EDF8ED76FDF91CE05
:104AC000EFDF71D751DF72CEF1D6F2C692BF2F9DC4
:104AD0006C200C051210827BCFF71E3D27451C0A67
:104AE00021224A5D15036F1E3AD60316FFEE36FFEC
:104AF0000269FE5C04BF069F0C033D02061C1927D9
:104B00003F377F1E9D2F1D169B0E9D065C0E5C364B
:104B1000779750DFEBF7A4EC053DDE031DF804DECC
:104B2000E1FA04E5001C0CA1FFA4FEE7FDAAD3CB2B
:104B3000DB0FFA051C0CF2FC52D30DF372FB54E1AF
:104B4000F208091255021D00031C05F253FB36F052
:104B5000072C0952FAB3EA92E291FB1807301813B6
:104B6000F292E2B0D34FFDF5E630D6AEDF10CECEF6
:104B7000D72EE7AFCECCFEAC164ED76FCF0ECF0EF2
:104B8000C6ADD74FE791E791D710BE2E4AA18A1E36
:104B90009D56141D941A1D4C104D701F5C10411130
:104BA00025004211882AEE01EA14951E9DE206AE08
:104BB000DFEA0695001DFA041F173FFA0598169DB7
:104BC0001E9C26DC57FF1EDE26DD4F9D3E11B7CE14
:104BD000DFE7F7C4F40E11E1FC048D120449021C56
:104BE0001844EE04FE6DFC8EFB12EA32FB73EB31CF
:104BF000FB95FB34EAB3F2B4F209180A53EA73FBEB
:104C000056F295FAB610180A53EA52DA51FB74FCC0
:104C10007910201894FAB3FAF3F372DBEEFF12EF77
:104C200090D70EDF4FDF6FDF8FD76E021006DF6F7A
:104C3000D74FD7041112A80C6FDF2EDF70E7B1E752
:104C400071CE8EFE1DD40BCEA6FC0B1D6E135C1216
:104C5000C209444BAF016701684D3803712E1C0E29
:104C60003DDE066DF0046DF2032504569E0E10081D
:104C70007D0EBE169D167C021E9D02071C067A3E06
:104C8000757F72FA045C04E4EFA2E8080617E1FA03
:104C90008D14044D04061C08E4FECAC346EAD0E4A1
:104CA000032C0673F2D3DA11F20D1DEC081C081167
:104CB000FAD4EA92D1F002081A54FC1C0651EAB266
:104CC000FB760807100492E2310E1F32F22C062008
:104CD00009D34DF690DEECE790EC1805D72ED78F70
:104CE000FA266F0C210823D74E0C1FD72F1A030C5E
:104CF000041030D70F221ADDA6224C1240010455B1
:104D0000561C733E5B2E5C2E9E269F063DDE065D86
:104D1000EA089EBF0406750E3D0E081C045D16FFD2
:104D20002007180C5D06BE1E9A35D0BFF2DFA5F62F
:104D30002DF0082DDC086DEE040D12F8052D0C0683
:104D400069221C0AA2FF45FEC9ECABE2D0E40E1CAE
:104D50000495EA13E80C1E75F005101233FAD6EA32
:104D600053D230FB95EA93FAF4F2F2E24F041E506C
:104D7000060B1D0E0917FB1428400E93DA71D36F32
:104D8000FF12E76FCECDDF70F615F8124E0A210C38
:104D9000124F143C0450DF500A05FC0451D7106434
:104DA0001B6D2C0A1DE6201C113A0842693ACB5CA7
:104DB000715D761CB5473F1EBDE4098C055E0E7F14
:104DC0000EEA03A5008D04052C04BE069F0E0921E2
:104DD000FE1D100B140EDF1EBA4E50B7EEE7C4FFD7
:104DE000A0EF60022500C9ECE5007EA022031C0CA8
:104DF000C2FF64FEC9DC48DACFE234F2062E35FC8D
:104E00000A1DEA0F181875F235EA53FC58E2D1EA88
:104E1000D2EAF2EB10EB71EB10F2F1FA92141410EB
:104E2000D2F353F2B4F315D2B0E451FF52E7B0E439
:104E30001250F61DF803590039FC2ED70606EC0A6D
:104E4000519D6AC68ED731DF515E258F10C39A20DF
:104E50002E087A203C0E20008232ED02AD25581E2D
:104E60005C167DE809E5F265007E9F080719081CBD
:104E70000516DE1EDE00073C107D0E7C26B956713D
:104E8000B7EFE7E5FFC0F760F20A021DC0029EA07F
:104E900008071C0C83FEE7E4A9DAEEDA72E253F4A9
:104EA000101C0654E1D2E9F3020F2C2AB7F295FB4D
:104EB000D6DA8FDA6FFBD4D30ED30CFC30EB4FF283
:104EC000D1E271F3B4DB11D251DAF2FDF9C42CEF67
:104ED00010DF6ED72EF6073D0404540490E77000EF
:104EE000164FFEFC0C51DF31ADECC68FDF51E7B23F
:104EF000DA174D7E264DBC1D5E614A186409C50057
:104F0000A50370265C16E892BE022DF6073EBEFE93
:104F10000465001D020D5C150E9D165B36FD1EBD61
:104F200047FF1EFD2E985E70BFEEDFC5EC0B02271B
:104F3000C00225001C1282FF26FE4BCB4AE34FD253
:104F4000CED2AEDAAEFB520C061C2A93EA74EAB358
:104F5000DACFFCD5E38FF471D3EBDC2BFD71CAE91A
:104F6000DAEEEB72FD9AD2F0E2F3D2B1D40FFEB4D6
:104F7000E6EFD70DFA0429F41E4FF0051EB108071D
:104F8000124F124D060325021E9208070C04102F23
:104F9000CEEEE5255DA21D2DF6061E419E111C0BD1
:104FA000C2008201065D17467C1ECA075DE0066DE1
:104FB000FA072D020632DEFA4DFE0556BD121C140C
:104FC0005C269C46BB3E5916391F3D1EDD2E368F92
:104FD00031D7ECFA087404E1F7800052A002CDFA50
:104FE000030D100A041C10A2FF43D561ED48ED0A21
:104FF000FE2FD447F50C10083C2C4BDB0DDAAFEB41
:1050000072D34DFD93ECEDFE4FDD47FEACFE2FDC81
:105010000AD38CFCB3D34FDB32DA52DAD2F4F2FE8D
:1050200092EF31EFB100064DF4031EB1FC05364E90
:10503000002DFE041E6F0A0911060C0515E78EE708
:10504000AFCF3E49001C10C300E4120801451A4BC3
:1050500044743E7C16DDF80792DFFE6DF60A76BEDC
:1050600000491054169E16DE2EDC6FBE5F1B26799B
:1050700016591E593E349F70DFEB0096C100BEA149
:105080000E03051600100AA2EE80FEC6FEE8FF0819
:1050900004142A0BF609E4C7D3E7D389CB89D44992
:1050A000FE4EFE6AFF4AE684FF07FE8AF5AACC0799
:1050B000FDB1CB8BDB4FDA91EB53CBED00680432C3
:1050C000DF30F21DF8081290023D02063110210275
:1050D000DC084ED74DD72CD70C42284D94154DC621
:1050E0001D2C0F624B6D74D37DB622ED00642C1421
:1050F00036F00C41E85EBF0603FE9F0A0455001D12
:10510000F80F1814DC5FDD67FD369967FF4F5A4EC4
:1051100071970DD7A9EFE3D0C5F20E1FC00C042D77
:1051200010101EA104031C0483FF84100C340863B8
:10513000FF85FF67FF480A100608FF27FF4610504B
:1051400022A4FFC3FF82F6E2FF06FE67FECCFE0E3E
:10515000CB89D30ECACDCC4EFF35DEF1D6EFD70EBC
:10516000E74FEE4E6FF60551022E7006081D12062F
:105170001102ADCE237D64291C04010041C0231C13
:105180000FC300A201255C72018700C6039136E4BB
:105190000E51FE9EBFF20A0510001DFE067C17068A
:1051A0003C1EDC26DA1E371D955F9C67FB45EFA78A
:1051B0006ED7A8F7E3F40B0128025EA10E072508BD
:1051C0004D140B16A30C21041E824A0B4D480716E2
:1051D000E0581680247C1844FF06FF2AEDA9F4ED60
:1051E000D3CBD4EEFF35E731D72FE750DF2F0007C1
:1051F000674FD7001D10045FDF9008091E4F7C1A0F
:105200009E8265313DD01F3F73CFB41F3242021CD6
:105210000A6201882C95469D26FEE00F4DE0076549
:10522000E8AD08054D0A094DFE0E2FDF0EF40C1CEB
:1052300010BC1E7A26791DF63F1A4E52BFF0EFEAD7
:10524000E4126DEC1005280449004D2C034D320387
:105250004D4405D2A14A2D2A042928100C84FF6749
:10526000F628ED8ACD0BF712FA1E6FF405162FEE15
:105270001E6FFC093E8FFA0921103E4F04055E7037
:1052800010076E4F16215F4208841E1DC01A1102BE
:105290003E63CC202DF00F180622018803B1FE4298
:1052A0007DDC9DF007C1FE6DFC052D00031EDF0CAB
:1052B000124C127C273D5FFF479E26795F9AAFF51F
:1052C000BF6BEFE5EA115FF7C1FE0F0E1DA0FE05F3
:1052D0007EC10C097E802E050D16360A7EE0481030
:1052E0002EC232091C07DE0AE6CFDF2DF40B29029D
:1052F00025F0674ED7005670004250FECFDF4F0CAE
:105300001B1D7C292DD81A1C0A4219250063192659
:105310001967E4193408840989022C2E5D006EDFB8
:10532000DC147500BEDE0C078ABE1A1C130EBD0EFF
:105330009C1E9B2EFC1E7B1E3846D66E8DE7E9FE1A
:10534000077404C1F780000D220A076D0E09061DBF
:10535000A03285001C10C1FF62FF66FF2AC586F7D8
:105360008EDF0CE72EF80E2C042FD70EFA0C1D043E
:10537000091D02045D0608A5001D9C191F10827AF4
:10538000293DE40F1C0708825B2D7C52B218701473
:1053900042004373D16BF1538F00C401A81CF72660
:1053A0007D275FFE091000E1FE2D06101DFE121C78
:1053B0000F169C2F3E0E3B26FC1657462FDFEAD4D5
:1053C000132DF2115AC1BA0D2208030D262E0485A1
:1053D000001EC00C041E6206031406E8FF6DEF2ECB
:1053E00000126FFE3E0EF80C1270025250F8910837
:1053F0004DD92D5D801E3C062110A331C8F6031C3B
:105400001263000208A40063010566382DD71E7BD5
:1054100016DEF40E2DEE125EBFF0080518002D0802
:10542000144D18111C06BD16DD1EDD02155C0A5A4E
:105430002ED85EB0DFE9F761CE037280FE0D2C0E30
:10544000050D1E2C096D400E2C0BA1FF64FF68EEAC
:105450008AE68CEF00062D02053290FE1C0470D700
:105460003014077D060595008D74303DCC1E1C0759
:10547000530D29C910A5C01D1C0C8401873DB626FB
:10548000790E9B06FECA126DE0114D04080615DF69
:10549000004D1C0F1EBF06171C05BE067C1602150C
:1054A000100B0E5A26976F52DFE9FF8102328002FD
:1054B0006D08060552002D5C091C0C83FF26BCC339
:1054C000D589F750D6CD08051670001250028D020E
:1054D000074E5106072D0A0B6D622A3E4F4C3C10B9
:1054E000050700147F022C12242A7F2A1223130896
:1054F0006462364955225000058E421F1C22270542
:10550000100B41221C0014083E081408051C040856
:105510000050E7492208011F0060B21C2C3A2010FD
:105520000804023E5149453E00427F40004261511D
:1055300049462141454B311814127F1027454545F6
:10554000393C4A4949300171090503364949493610
:10555000064949291E0036C552125605130814641F
:10556000221401116920131408020151090632495D
:1055700079413E7E1111117E7F3210073E4141413B
:10558000227F04221C0F100D417F090909013E41B1
:1055900049497A7F881C057F00417F3626200640D6
:1055A000413F017F4C137F4001200B7F020C027FA3
:1055B0007F0408107F3C223E32100D063E415121EF
:1055C0005E7F09192946468710083101017F0101D4
:1055D0003F2D10163F1F2040201F3F4038403F63A3
:1055E000140814630708700807C7100445430074C3
:1055F000130002461DF8202009417F000402010229
:10560000045E1240081D8F27100F545454787F48B1
:105610004444383844444420051004487F3814106A
:105620000718087E090102E61C0B493F7F080404A5
:105630007800447D14261C0840443D007F1028F467
:105640001D11A22008007C0418047C7C1E213C1340
:10565000387CFF30060808141418141308485A1030
:105660000D20043F4440203C4040207C1CA01009F9
:105670001C3C4030403C4428426C0E0C5050503C86
:105680004464544C44000836CB422005413608009F
:105690009F6C06023E555541203B1E793D211C1052
:1056A00024742E24487E4942405D2222225D15A1A9
:1056B000101DDE391E77DC3C3C0555555528BB27AF
:1056C000100C000A0D0A0408142A14220401261CD6
:1056D000DC230001011C0A000205020044445F446F
:1056E000B72311FC1C097E2020103E060F7F0F3EC1
:1056F0002E187E5330044050203C1300223C2022C0
:10570000081708342A7D1708046A59304845402094
:1057100070292628707028262970702A252A707210
:10572000290A2329240F14062D2A707E11D8400B34
:105730000E515171117C555654440510045655565E
:105740000A140754554400457E271F447EBE291F76
:10575000467DB71C1805457C450008240B413E7C5E
:105760000A11227D3845467230084645383846458C
:10577000460518073938454445383D180414222E8B
:105780008A10263A3C4142403C3C4042413C3C422B
:1057900041423C3C4140413C0C1062110C7F1212D2
:1057A000120C403E0149362073100878205456559B
:1057B00078207812780F110A117D110F100F5756AB
:1057C0007824547854580C5252721338A013183855
:1057D00028131838A0131838A01C051800497ABFE0
:1057E0001F1F487A42081F4A79F128301D4A784223
:1057F00000314A4E4A307A110A097030494A48301D
:1058000030484A4930304A494A05140D31304A4837
:105810004A3008082A080838B810103838414220A1
:105820007838404221783842412205280A402278BF
:105830000C5052513C7E0820100C5150513C1E0916
:1058400009295E081515354EEB2220501220FA1159
:105850000A12490A127C0A1008382050507C031F93
:105860002313510E28164645135544AF11A01805B1
:10587000447C400099100F404000497F44007C0860
:1058800012217C78109B237C090A21A5140D38472E
:10589000444738304B484B303E415B200B3844384E
:1058A00054587C151635481E17104818100420202F
:1058B000480512485510042020490F203004057E69
:1058C0000504083C4822013C4245423C38424522FE
:1058D000783C4340433C38434023780C1160110C22
:1058E0004466554C44486A59480044640A13685A4F
:1058F0000A1C0965564D4448695A495E3C1E0160C0
:105900003C1F01021830295C6C04010202074D297A
:105910006719BC380801007F05153A50C11618CC2C
:1059200010060C444A4A510114054A4A4474C74EB1
:10593000747B417D15043C0B7F02010103704E41D5
:105940004E7015043DB1033D10041E3E7A033E3EE9
:1059500015043D10048C06700E010E7010043C06F8
:10596000635D495D6315041D31043E3F4C043C07F3
:1059700006635549414110044C0B03017E010308A5
:10598000557F55080B041C16487F48075E6101616E
:105990005E384448304C7C2A2A2A144438A2031C1E
:1059A0000A304B4D59302854544475191C14555223
:1059B000223E0402027C3C4A4A4A3C003C40200011
:1059C0007CA6033C074041320C304034033DC00309
:1059D0003C06142B2A2A60ED03100F443C047C443F
:1059E00070282424180C1212521410064C5424044B
:1059F0003C4A2DED034C071C18247E2418E80310A4
:105A00002E107E100C38443044380A0A4A2A1E04EC
:105A10004434140C201078040018084C48384848C6
:105A20007848484828187C08087C08281840101E28
:105A30004091041E7C19263C04584038A005102FC4
:105A400001413D090710087C02010E0243221E425B
:105A5000427E424222120A7F02423F02423E0A0A2C
:105A60007F0A0A084642221E0403423E0242011CEB
:105A7000097E024F221F024A4A6F04112914212A6B
:105A800046023F424A46064840201E08464A321E09
:105A90000A4A3E09080E004E201E04453D05045FDB
:105AA0001009100044241F0404403D1C0D40422AEC
:105AB000122A0622127B1622004F051D645D1C056A
:105AC0000204783FDD0412445B11641D4705140D88
:105AD0003032027F0232021222520E004A10084077
